{
  "_format": "hh-sol-artifact-1",
  "contractName": "AcademicCredential",
  "sourceName": "contracts/AcademicCredential.sol",
  "abi": [
    {
      "inputs": [],
      "stateMutability": "nonpayable",
      "type": "constructor"
    },
    {
      "inputs": [],
      "name": "admin",
      "outputs": [
        {
          "internalType": "address",
          "name": "",
          "type": "address"
        }
      ],
      "stateMutability": "view",
      "type": "function"
    },
    {
      "inputs": [
        {
          "internalType": "address",
          "name": "student",
          "type": "address"
        }
      ],
      "name": "getCredentials",
      "outputs": [
        {
          "components": [
            {
              "internalType": "string",
              "name": "studentName",
              "type": "string"
            },
            {
              "internalType": "string",
              "name": "degree",
              "type": "string"
            },
            {
              "internalType": "string",
              "name": "institution",
              "type": "string"
            },
            {
              "internalType": "uint256",
              "name": "issueDate",
              "type": "uint256"
            }
          ],
          "internalType": "struct AcademicCredential.Credential[]",
          "name": "",
          "type": "tuple[]"
        }
      ],
      "stateMutability": "view",
      "type": "function"
    },
    {
      "inputs": [
        {
          "internalType": "address",
          "name": "student",
          "type": "address"
        },
        {
          "internalType": "string",
          "name": "studentName",
          "type": "string"
        },
        {
          "internalType": "string",
          "name": "degree",
          "type": "string"
        },
        {
          "internalType": "string",
          "name": "institution",
          "type": "string"
        }
      ],
      "name": "issueCredential",
      "outputs": [],
      "stateMutability": "nonpayable",
      "type": "function"
    }
  ],
  "bytecode": "0x608060405234801561001057600080fd5b50336000806101000a81548173ffffffffffffffffffffffffffffffffffffffff021916908373ffffffffffffffffffffffffffffffffffffffff160217905550610d0b806100606000396000f3fe608060405234801561001057600080fd5b50600436106100415760003560e01c8063049a380d146100465780638427060814610062578063f851a44014610092575b600080fd5b610060600480360381019061005b9190610655565b6100b0565b005b61007c60048036038101906100779190610710565b61021b565b6040516100899190610908565b60405180910390f35b61009a610479565b6040516100a79190610939565b60405180910390f35b60008054906101000a900473ffffffffffffffffffffffffffffffffffffffff1673ffffffffffffffffffffffffffffffffffffffff163373ffffffffffffffffffffffffffffffffffffffff161461013e576040517f08c379a0000000000000000000000000000000000000000000000000000000008152600401610135906109d7565b60405180910390fd5b600160008573ffffffffffffffffffffffffffffffffffffffff1673ffffffffffffffffffffffffffffffffffffffff168152602001908152602001600020604051806080016040528085815260200184815260200183815260200142815250908060018154018082558091505060019003906000526020600020906004020160009091909190915060008201518160000190816101dc9190610c03565b5060208201518160010190816101f29190610c03565b5060408201518160020190816102089190610c03565b5060608201518160030155505050505050565b6060600160008373ffffffffffffffffffffffffffffffffffffffff1673ffffffffffffffffffffffffffffffffffffffff168152602001908152602001600020805480602002602001604051908101604052809291908181526020016000905b8282101561046e57838290600052602060002090600402016040518060800160405290816000820180546102af90610a26565b80601f01602080910402602001604051908101604052809291908181526020018280546102db90610a26565b80156103285780601f106102fd57610100808354040283529160200191610328565b820191906000526020600020905b81548152906001019060200180831161030b57829003601f168201915b5050505050815260200160018201805461034190610a26565b80601f016020809104026020016040519081016040528092919081815260200182805461036d90610a26565b80156103ba5780601f1061038f576101008083540402835291602001916103ba565b820191906000526020600020905b81548152906001019060200180831161039d57829003601f168201915b505050505081526020016002820180546103d390610a26565b80601f01602080910402602001604051908101604052809291908181526020018280546103ff90610a26565b801561044c5780601f106104215761010080835404028352916020019161044c565b820191906000526020600020905b81548152906001019060200180831161042f57829003601f168201915b505050505081526020016003820154815250508152602001906001019061027c565b505050509050919050565b60008054906101000a900473ffffffffffffffffffffffffffffffffffffffff1681565b6000604051905090565b600080fd5b600080fd5b600073ffffffffffffffffffffffffffffffffffffffff82169050919050565b60006104dc826104b1565b9050919050565b6104ec816104d1565b81146104f757600080fd5b50565b600081359050610509816104e3565b92915050565b600080fd5b600080fd5b6000601f19601f8301169050919050565b7f4e487b7100000000000000000000000000000000000000000000000000000000600052604160045260246000fd5b61056282610519565b810181811067ffffffffffffffff821117156105815761058061052a565b5b80604052505050565b600061059461049d565b90506105a08282610559565b919050565b600067ffffffffffffffff8211156105c0576105bf61052a565b5b6105c982610519565b9050602081019050919050565b82818337600083830152505050565b60006105f86105f3846105a5565b61058a565b90508281526020810184848401111561061457610613610514565b5b61061f8482856105d6565b509392505050565b600082601f83011261063c5761063b61050f565b5b813561064c8482602086016105e5565b91505092915050565b6000806000806080858703121561066f5761066e6104a7565b5b600061067d878288016104fa565b945050602085013567ffffffffffffffff81111561069e5761069d6104ac565b5b6106aa87828801610627565b935050604085013567ffffffffffffffff8111156106cb576106ca6104ac565b5b6106d787828801610627565b925050606085013567ffffffffffffffff8111156106f8576106f76104ac565b5b61070487828801610627565b91505092959194509250565b600060208284031215610726576107256104a7565b5b6000610734848285016104fa565b91505092915050565b600081519050919050565b600082825260208201905092915050565b6000819050602082019050919050565b600081519050919050565b600082825260208201905092915050565b60005b838110156107a3578082015181840152602081019050610788565b60008484015250505050565b60006107ba82610769565b6107c48185610774565b93506107d4818560208601610785565b6107dd81610519565b840191505092915050565b6000819050919050565b6107fb816107e8565b82525050565b6000608083016000830151848203600086015261081e82826107af565b9150506020830151848203602086015261083882826107af565b9150506040830151848203604086015261085282826107af565b915050606083015161086760608601826107f2565b508091505092915050565b600061087e8383610801565b905092915050565b6000602082019050919050565b600061089e8261073d565b6108a88185610748565b9350836020820285016108ba85610759565b8060005b858110156108f657848403895281516108d78582610872565b94506108e283610886565b925060208a019950506001810190506108be565b50829750879550505050505092915050565b600060208201905081810360008301526109228184610893565b905092915050565b610933816104d1565b82525050565b600060208201905061094e600083018461092a565b92915050565b600082825260208201905092915050565b7f4f6e6c792061646d696e2063616e20706572666f726d2074686973206163746960008201527f6f6e000000000000000000000000000000000000000000000000000000000000602082015250565b60006109c1602283610954565b91506109cc82610965565b604082019050919050565b600060208201905081810360008301526109f0816109b4565b9050919050565b7f4e487b7100000000000000000000000000000000000000000000000000000000600052602260045260246000fd5b60006002820490506001821680610a3e57607f821691505b602082108103610a5157610a506109f7565b5b50919050565b60008190508160005260206000209050919050565b60006020601f8301049050919050565b600082821b905092915050565b600060088302610ab97fffffffffffffffffffffffffffffffffffffffffffffffffffffffffffffffff82610a7c565b610ac38683610a7c565b95508019841693508086168417925050509392505050565b6000819050919050565b6000610b00610afb610af6846107e8565b610adb565b6107e8565b9050919050565b6000819050919050565b610b1a83610ae5565b610b2e610b2682610b07565b848454610a89565b825550505050565b600090565b610b43610b36565b610b4e818484610b11565b505050565b5b81811015610b7257610b67600082610b3b565b600181019050610b54565b5050565b601f821115610bb757610b8881610a57565b610b9184610a6c565b81016020851015610ba0578190505b610bb4610bac85610a6c565b830182610b53565b50505b505050565b600082821c905092915050565b6000610bda60001984600802610bbc565b1980831691505092915050565b6000610bf38383610bc9565b9150826002028217905092915050565b610c0c82610769565b67ffffffffffffffff811115610c2557610c2461052a565b5b610c2f8254610a26565b610c3a828285610b76565b600060209050601f831160018114610c6d5760008415610c5b578287015190505b610c658582610be7565b865550610ccd565b601f198416610c7b86610a57565b60005b82811015610ca357848901518255600182019150602085019450602081019050610c7e565b86831015610cc05784890151610cbc601f891682610bc9565b8355505b6001600288020188555050505b50505050505056fea2646970667358221220746b52b86a5db7b24d5bb4b0ff8eef2b03ebbfa147c93037ba5bbeaefe88cb9364736f6c63430008140033",
  "linkReferences": {},
  "deployedLinkReferences": {}
}